{
  "_format": "hh-sol-artifact-1",
  "contractName": "Raffle2",
  "sourceName": "contracts/Raffle2.sol",
  "abi": [
    {
      "inputs": [],
      "stateMutability": "nonpayable",
      "type": "constructor"
    },
    {
      "inputs": [
        {
          "internalType": "address",
          "name": "_participant",
          "type": "address"
        },
        {
          "internalType": "uint256",
          "name": "_amount",
          "type": "uint256"
        }
      ],
      "name": "EnterRaffle",
      "outputs": [],
      "stateMutability": "payable",
      "type": "function"
    },
    {
      "inputs": [],
      "name": "getRandomNumber",
      "outputs": [
        {
          "internalType": "bytes32",
          "name": "requestId",
          "type": "bytes32"
        }
      ],
      "stateMutability": "nonpayable",
      "type": "function"
    },
    {
      "inputs": [],
      "name": "numberOfBaskets",
      "outputs": [
        {
          "internalType": "uint256",
          "name": "",
          "type": "uint256"
        }
      ],
      "stateMutability": "view",
      "type": "function"
    },
    {
      "inputs": [],
      "name": "numberOfTickets",
      "outputs": [
        {
          "internalType": "uint256",
          "name": "",
          "type": "uint256"
        }
      ],
      "stateMutability": "view",
      "type": "function"
    },
    {
      "inputs": [],
      "name": "owner",
      "outputs": [
        {
          "internalType": "address",
          "name": "",
          "type": "address"
        }
      ],
      "stateMutability": "view",
      "type": "function"
    },
    {
      "inputs": [
        {
          "internalType": "address",
          "name": "",
          "type": "address"
        },
        {
          "internalType": "uint256",
          "name": "",
          "type": "uint256"
        },
        {
          "internalType": "uint256",
          "name": "",
          "type": "uint256"
        }
      ],
      "name": "participantToTicket",
      "outputs": [
        {
          "internalType": "uint256",
          "name": "",
          "type": "uint256"
        }
      ],
      "stateMutability": "view",
      "type": "function"
    },
    {
      "inputs": [
        {
          "internalType": "uint256",
          "name": "",
          "type": "uint256"
        }
      ],
      "name": "participants",
      "outputs": [
        {
          "internalType": "address",
          "name": "",
          "type": "address"
        }
      ],
      "stateMutability": "view",
      "type": "function"
    },
    {
      "inputs": [],
      "name": "pickWinner",
      "outputs": [
        {
          "internalType": "address",
          "name": "",
          "type": "address"
        }
      ],
      "stateMutability": "nonpayable",
      "type": "function"
    },
    {
      "inputs": [],
      "name": "randomResult",
      "outputs": [
        {
          "internalType": "uint256",
          "name": "",
          "type": "uint256"
        }
      ],
      "stateMutability": "view",
      "type": "function"
    },
    {
      "inputs": [
        {
          "internalType": "bytes32",
          "name": "requestId",
          "type": "bytes32"
        },
        {
          "internalType": "uint256",
          "name": "randomness",
          "type": "uint256"
        }
      ],
      "name": "rawFulfillRandomness",
      "outputs": [],
      "stateMutability": "nonpayable",
      "type": "function"
    },
    {
      "inputs": [],
      "name": "rollDice",
      "outputs": [
        {
          "internalType": "uint256",
          "name": "",
          "type": "uint256"
        }
      ],
      "stateMutability": "view",
      "type": "function"
    },
    {
      "inputs": [],
      "name": "ticketPrice",
      "outputs": [
        {
          "internalType": "uint256",
          "name": "",
          "type": "uint256"
        }
      ],
      "stateMutability": "view",
      "type": "function"
    }
  ],
  "bytecode": "0x60c060405234801561001057600080fd5b50738c7382f9d8f56b33781fe506e897a4f1e2d1725573326c977e6efc84e512bb9c30f76e30c160ed06fb8173ffffffffffffffffffffffffffffffffffffffff1660a08173ffffffffffffffffffffffffffffffffffffffff1660601b815250508073ffffffffffffffffffffffffffffffffffffffff1660808173ffffffffffffffffffffffffffffffffffffffff1660601b8152505050507f6e75b569a01ef56d18cab6a8e71e6600d6ce853834d4a5748b720d06f878b3a460001b600181905550655af3107a400060028190555060805160601c60a05160601c61168b61011b600039600081816106e00152610b9e0152600081816109e20152610b62015261168b6000f3fe6080604052600436106100a75760003560e01c80638da5cb5b116100645780638da5cb5b146101c057806394985ddd146101eb5780639a81ce3a14610214578063cf7f34c814610230578063dbdff2c11461025b578063e087380014610286576100a7565b80631209b1f6146100ac57806335c1d349146100d757806342619f661461011457806345745c101461013f5780635d495aea1461016a578063837e7cc614610195575b600080fd5b3480156100b857600080fd5b506100c16102c3565b6040516100ce919061128f565b60405180910390f35b3480156100e357600080fd5b506100fe60048036038101906100f99190610f8f565b6102c9565b60405161010b919061112d565b60405180910390f35b34801561012057600080fd5b50610129610308565b604051610136919061128f565b60405180910390f35b34801561014b57600080fd5b5061015461030e565b604051610161919061128f565b60405180910390f35b34801561017657600080fd5b5061017f610314565b60405161018c919061112d565b60405180910390f35b3480156101a157600080fd5b506101aa610650565b6040516101b7919061128f565b60405180910390f35b3480156101cc57600080fd5b506101d56106b8565b6040516101e2919061112d565b60405180910390f35b3480156101f757600080fd5b50610212600480360381019061020d9190610f53565b6106de565b005b61022e60048036038101906102299190610e9f565b61077a565b005b34801561023c57600080fd5b506102456109d5565b604051610252919061128f565b60405180910390f35b34801561026757600080fd5b506102706109db565b60405161027d9190611186565b60405180910390f35b34801561029257600080fd5b506102ad60048036038101906102a89190610edb565b610add565b6040516102ba919061128f565b60405180910390f35b60065481565b600781815481106102d957600080fd5b906000526020600020016000915054906101000a900473ffffffffffffffffffffffffffffffffffffffff1681565b60035481565b60055481565b6000600860009054906101000a900473ffffffffffffffffffffffffffffffffffffffff1673ffffffffffffffffffffffffffffffffffffffff163373ffffffffffffffffffffffffffffffffffffffff161461037057600080fd5b600061037a610650565b905060005b60078054905081111561064a57600060096000600784815481106103cc577f4e487b7100000000000000000000000000000000000000000000000000000000600052603260045260246000fd5b9060005260206000200160009054906101000a900473ffffffffffffffffffffffffffffffffffffffff1673ffffffffffffffffffffffffffffffffffffffff1673ffffffffffffffffffffffffffffffffffffffff168152602001908152602001600020805480602002602001604051908101604052809291908181526020016000905b828210156104c3578382906000526020600020018054806020026020016040519081016040528092919081815260200182805480156104af57602002820191906000526020600020905b81548152602001906001019080831161049b575b505050505081526020019060010190610451565b50505050905060005b8151811115610635576000828281518110610510577f4e487b7100000000000000000000000000000000000000000000000000000000600052603260045260246000fd5b6020026020010151905080600081518110610554577f4e487b7100000000000000000000000000000000000000000000000000000000600052603260045260246000fd5b6020026020010151851115806105ab57508060018151811061059f577f4e487b7100000000000000000000000000000000000000000000000000000000600052603260045260246000fd5b60200260200101518510155b1561062157600784815481106105ea577f4e487b7100000000000000000000000000000000000000000000000000000000600052603260045260246000fd5b9060005260206000200160009054906101000a900473ffffffffffffffffffffffffffffffffffffffff169550505050505061064d565b50808061062d9061140c565b9150506104cc565b505080806106429061140c565b91505061037f565b50505b90565b6000806003541015610697576040517f08c379a000000000000000000000000000000000000000000000000000000000815260040161068e9061120f565b60405180910390fd5b60016004546003546106a99190611469565b6106b391906112d7565b905090565b600860009054906101000a900473ffffffffffffffffffffffffffffffffffffffff1681565b7f000000000000000000000000000000000000000000000000000000000000000073ffffffffffffffffffffffffffffffffffffffff163373ffffffffffffffffffffffffffffffffffffffff161461076c576040517f08c379a00000000000000000000000000000000000000000000000000000000081526004016107639061126f565b60405180910390fd5b6107768282610b27565b5050565b610791600654600554610b3290919063ffffffff16565b34116107d2576040517f08c379a00000000000000000000000000000000000000000000000000000000081526004016107c99061124f565b60405180910390fd5b6000600960008473ffffffffffffffffffffffffffffffffffffffff1673ffffffffffffffffffffffffffffffffffffffff1681526020019081526020016000208054905011156108d357600960008373ffffffffffffffffffffffffffffffffffffffff1673ffffffffffffffffffffffffffffffffffffffff168152602001908152602001600020604051806040016040528061087d6001600554610b4890919063ffffffff16565b815260200161089784600554610b4890919063ffffffff16565b815250908060018154018082558091505060019003906000526020600020016000909190919091509060026108cd929190610d2c565b506109d1565b604051806020016040528060405180604001604052806108ff6001600554610b4890919063ffffffff16565b815260200161091985600554610b4890919063ffffffff16565b815250815250600960008473ffffffffffffffffffffffffffffffffffffffff1673ffffffffffffffffffffffffffffffffffffffff16815260200190815260200160002090600161096c929190610d79565b506007339080600181540180825580915050600190039060005260206000200160009091909190916101000a81548173ffffffffffffffffffffffffffffffffffffffff021916908373ffffffffffffffffffffffffffffffffffffffff1602179055505b5050565b60045481565b60006002547f000000000000000000000000000000000000000000000000000000000000000073ffffffffffffffffffffffffffffffffffffffff166370a08231306040518263ffffffff1660e01b8152600401610a39919061112d565b60206040518083038186803b158015610a5157600080fd5b505afa158015610a65573d6000803e3d6000fd5b505050506040513d601f19601f82011682018060405250810190610a899190610fb8565b1015610aca576040517f08c379a0000000000000000000000000000000000000000000000000000000008152600401610ac19061122f565b60405180910390fd5b610ad8600154600254610b5e565b905090565b60096020528260005260406000208281548110610af957600080fd5b906000526020600020018181548110610b1157600080fd5b9060005260206000200160009250925050505481565b806003819055505050565b60008183610b40919061132d565b905092915050565b60008183610b5691906112d7565b905092915050565b60007f000000000000000000000000000000000000000000000000000000000000000073ffffffffffffffffffffffffffffffffffffffff16634000aea07f000000000000000000000000000000000000000000000000000000000000000084866000604051602001610bd29291906111a1565b6040516020818303038152906040526040518463ffffffff1660e01b8152600401610bff93929190611148565b602060405180830381600087803b158015610c1957600080fd5b505af1158015610c2d573d6000803e3d6000fd5b505050506040513d601f19601f82011682018060405250810190610c519190610f2a565b506000610c738460003060008089815260200190815260200160002054610cbd565b9050600160008086815260200190815260200160002054610c9491906112d7565b60008086815260200190815260200160002081905550610cb48482610cf9565b91505092915050565b600084848484604051602001610cd694939291906111ca565b6040516020818303038152906040528051906020012060001c9050949350505050565b60008282604051602001610d0e929190611101565b60405160208183030381529060405280519060200120905092915050565b828054828255906000526020600020908101928215610d68579160200282015b82811115610d67578251825591602001919060010190610d4c565b5b509050610d759190610dd4565b5090565b828054828255906000526020600020908101928215610dc3579160200282015b82811115610dc257825182906002610db2929190610d2c565b5091602001919060010190610d99565b5b509050610dd09190610df1565b5090565b5b80821115610ded576000816000905550600101610dd5565b5090565b5b80821115610e115760008181610e089190610e15565b50600101610df2565b5090565b5080546000825590600052602060002090810190610e339190610dd4565b50565b600081359050610e45816115f9565b92915050565b600081519050610e5a81611610565b92915050565b600081359050610e6f81611627565b92915050565b600081359050610e848161163e565b92915050565b600081519050610e998161163e565b92915050565b60008060408385031215610eb257600080fd5b6000610ec085828601610e36565b9250506020610ed185828601610e75565b9150509250929050565b600080600060608486031215610ef057600080fd5b6000610efe86828701610e36565b9350506020610f0f86828701610e75565b9250506040610f2086828701610e75565b9150509250925092565b600060208284031215610f3c57600080fd5b6000610f4a84828501610e4b565b91505092915050565b60008060408385031215610f6657600080fd5b6000610f7485828601610e60565b9250506020610f8585828601610e75565b9150509250929050565b600060208284031215610fa157600080fd5b6000610faf84828501610e75565b91505092915050565b600060208284031215610fca57600080fd5b6000610fd884828501610e8a565b91505092915050565b610fea81611387565b82525050565b610ff9816113a5565b82525050565b61101061100b826113a5565b611455565b82525050565b6000611021826112aa565b61102b81856112b5565b935061103b8185602086016113d9565b611044816114f8565b840191505092915050565b600061105c6027836112c6565b915061106782611509565b604082019050919050565b600061107f602b836112c6565b915061108a82611558565b604082019050919050565b60006110a2600f836112c6565b91506110ad826115a7565b602082019050919050565b60006110c5601f836112c6565b91506110d0826115d0565b602082019050919050565b6110e4816113cf565b82525050565b6110fb6110f6826113cf565b61145f565b82525050565b600061110d8285610fff565b60208201915061111d82846110ea565b6020820191508190509392505050565b60006020820190506111426000830184610fe1565b92915050565b600060608201905061115d6000830186610fe1565b61116a60208301856110db565b818103604083015261117c8184611016565b9050949350505050565b600060208201905061119b6000830184610ff0565b92915050565b60006040820190506111b66000830185610ff0565b6111c360208301846110db565b9392505050565b60006080820190506111df6000830187610ff0565b6111ec60208301866110db565b6111f96040830185610fe1565b61120660608301846110db565b95945050505050565b600060208201905081810360008301526112288161104f565b9050919050565b6000602082019050818103600083015261124881611072565b9050919050565b6000602082019050818103600083015261126881611095565b9050919050565b60006020820190508181036000830152611288816110b8565b9050919050565b60006020820190506112a460008301846110db565b92915050565b600081519050919050565b600082825260208201905092915050565b600082825260208201905092915050565b60006112e2826113cf565b91506112ed836113cf565b9250827fffffffffffffffffffffffffffffffffffffffffffffffffffffffffffffffff038211156113225761132161149a565b5b828201905092915050565b6000611338826113cf565b9150611343836113cf565b9250817fffffffffffffffffffffffffffffffffffffffffffffffffffffffffffffffff048311821515161561137c5761137b61149a565b5b828202905092915050565b6000611392826113af565b9050919050565b60008115159050919050565b6000819050919050565b600073ffffffffffffffffffffffffffffffffffffffff82169050919050565b6000819050919050565b60005b838110156113f75780820151818401526020810190506113dc565b83811115611406576000848401525b50505050565b6000611417826113cf565b91507fffffffffffffffffffffffffffffffffffffffffffffffffffffffffffffffff82141561144a5761144961149a565b5b600182019050919050565b6000819050919050565b6000819050919050565b6000611474826113cf565b915061147f836113cf565b92508261148f5761148e6114c9565b5b828206905092915050565b7f4e487b7100000000000000000000000000000000000000000000000000000000600052601160045260246000fd5b7f4e487b7100000000000000000000000000000000000000000000000000000000600052601260045260246000fd5b6000601f19601f8301169050919050565b7f52616e646f6d206e756d62657220686173206e6f7420796574206265656e206f60008201527f627461696e656400000000000000000000000000000000000000000000000000602082015250565b7f4e6f7420656e6f756768204c494e4b202d2066696c6c20636f6e74726163742060008201527f7769746820666175636574000000000000000000000000000000000000000000602082015250565b7f4e6f7420656e6f75676820506169640000000000000000000000000000000000600082015250565b7f4f6e6c7920565246436f6f7264696e61746f722063616e2066756c66696c6c00600082015250565b61160281611387565b811461160d57600080fd5b50565b61161981611399565b811461162457600080fd5b50565b611630816113a5565b811461163b57600080fd5b50565b611647816113cf565b811461165257600080fd5b5056fea2646970667358221220c2a5bbacc78286fd166f2d78d67f6803829bfbc65ad17459c7bf661d265bfa1f64736f6c63430008040033",
  "linkReferences": {},
  "deployedLinkReferences": {}
}