{
  "_format": "hh-sol-artifact-1",
  "contractName": "ERC721Donations",
  "sourceName": "contracts/ERC721Donations.sol",
  "abi": [
    {
      "inputs": [
        {
          "internalType": "address",
          "name": "_stardustToken",
          "type": "address"
        }
      ],
      "stateMutability": "nonpayable",
      "type": "constructor"
    },
    {
      "inputs": [],
      "name": "admin",
      "outputs": [
        {
          "internalType": "address payable",
          "name": "",
          "type": "address"
        }
      ],
      "stateMutability": "view",
      "type": "function"
    },
    {
      "inputs": [
        {
          "internalType": "uint256",
          "name": "donationId",
          "type": "uint256"
        },
        {
          "internalType": "address",
          "name": "basketTokenAddress",
          "type": "address"
        },
        {
          "internalType": "uint256",
          "name": "basketTokenId",
          "type": "uint256"
        },
        {
          "internalType": "string",
          "name": "basketManagerId",
          "type": "string"
        },
        {
          "internalType": "address",
          "name": "cpAddress",
          "type": "address"
        },
        {
          "internalType": "uint256",
          "name": "nftTokenAmount",
          "type": "uint256"
        }
      ],
      "name": "depositDonationIntoBasket",
      "outputs": [],
      "stateMutability": "nonpayable",
      "type": "function"
    },
    {
      "inputs": [
        {
          "internalType": "address",
          "name": "donor",
          "type": "address"
        },
        {
          "internalType": "uint256",
          "name": "charityId",
          "type": "uint256"
        },
        {
          "internalType": "address",
          "name": "erc721Address",
          "type": "address"
        },
        {
          "internalType": "uint256",
          "name": "tokenId",
          "type": "uint256"
        },
        {
          "internalType": "string",
          "name": "donationDate",
          "type": "string"
        }
      ],
      "name": "donate",
      "outputs": [],
      "stateMutability": "nonpayable",
      "type": "function"
    },
    {
      "inputs": [],
      "name": "fetchDonationsList",
      "outputs": [
        {
          "components": [
            {
              "internalType": "uint256",
              "name": "donationId",
              "type": "uint256"
            },
            {
              "internalType": "address",
              "name": "donor",
              "type": "address"
            },
            {
              "internalType": "uint256",
              "name": "charityId",
              "type": "uint256"
            },
            {
              "internalType": "address",
              "name": "erc721Address",
              "type": "address"
            },
            {
              "internalType": "uint256",
              "name": "tokenId",
              "type": "uint256"
            },
            {
              "internalType": "string",
              "name": "donationDate",
              "type": "string"
            },
            {
              "internalType": "enum ERC721Donations.DonationState",
              "name": "state",
              "type": "uint8"
            }
          ],
          "internalType": "struct ERC721Donations.Donation[]",
          "name": "",
          "type": "tuple[]"
        }
      ],
      "stateMutability": "view",
      "type": "function"
    },
    {
      "inputs": [
        {
          "internalType": "uint256",
          "name": "",
          "type": "uint256"
        }
      ],
      "name": "list",
      "outputs": [
        {
          "internalType": "uint256",
          "name": "donationId",
          "type": "uint256"
        },
        {
          "internalType": "address",
          "name": "donor",
          "type": "address"
        },
        {
          "internalType": "uint256",
          "name": "charityId",
          "type": "uint256"
        },
        {
          "internalType": "address",
          "name": "erc721Address",
          "type": "address"
        },
        {
          "internalType": "uint256",
          "name": "tokenId",
          "type": "uint256"
        },
        {
          "internalType": "string",
          "name": "donationDate",
          "type": "string"
        },
        {
          "internalType": "enum ERC721Donations.DonationState",
          "name": "state",
          "type": "uint8"
        }
      ],
      "stateMutability": "view",
      "type": "function"
    },
    {
      "inputs": [],
      "name": "owner",
      "outputs": [
        {
          "internalType": "address payable",
          "name": "",
          "type": "address"
        }
      ],
      "stateMutability": "view",
      "type": "function"
    },
    {
      "inputs": [],
      "name": "stardustToken",
      "outputs": [
        {
          "internalType": "address payable",
          "name": "",
          "type": "address"
        }
      ],
      "stateMutability": "view",
      "type": "function"
    }
  ],
  "bytecode": "0x60806040523480156200001157600080fd5b50604051620017d8380380620017d8833981810160405281019062000037919062000118565b33600160006101000a81548173ffffffffffffffffffffffffffffffffffffffff021916908373ffffffffffffffffffffffffffffffffffffffff16021790555033600260006101000a81548173ffffffffffffffffffffffffffffffffffffffff021916908373ffffffffffffffffffffffffffffffffffffffff16021790555080600360006101000a81548173ffffffffffffffffffffffffffffffffffffffff021916908373ffffffffffffffffffffffffffffffffffffffff1602179055505062000192565b600081519050620001128162000178565b92915050565b6000602082840312156200012b57600080fd5b60006200013b8482850162000101565b91505092915050565b6000620001518262000158565b9050919050565b600073ffffffffffffffffffffffffffffffffffffffff82169050919050565b620001838162000144565b81146200018f57600080fd5b50565b61163680620001a26000396000f3fe608060405234801561001057600080fd5b506004361061007d5760003560e01c80638da5cb5b1161005b5780638da5cb5b146100f2578063b1f6ce0814610110578063bb37ab4d1461012e578063f851a4401461014a5761007d565b806315b4b589146100825780635734a1351461009e57806380c9419e146100bc575b600080fd5b61009c60048036038101906100979190610da1565b610168565b005b6100a661036c565b6040516100b39190611188565b60405180910390f35b6100d660048036038101906100d19190610e59565b610392565b6040516100e99796959493929190611278565b60405180910390f35b6100fa6104b9565b6040516101079190611188565b60405180910390f35b6101186104df565b6040516101259190611236565b60405180910390f35b61014860048036038101906101439190610e82565b610721565b005b610152610bc3565b60405161015f9190611188565b60405180910390f35b6101726000610be9565b600061017e6000610bff565b905060046040518060e001604052808381526020018873ffffffffffffffffffffffffffffffffffffffff1681526020018781526020018673ffffffffffffffffffffffffffffffffffffffff16815260200185815260200184815260200160006003811115610217577f4e487b7100000000000000000000000000000000000000000000000000000000600052602160045260246000fd5b81525090806001815401808255809150506001900390600052602060002090600702016000909190919091506000820151816000015560208201518160010160006101000a81548173ffffffffffffffffffffffffffffffffffffffff021916908373ffffffffffffffffffffffffffffffffffffffff1602179055506040820151816002015560608201518160030160006101000a81548173ffffffffffffffffffffffffffffffffffffffff021916908373ffffffffffffffffffffffffffffffffffffffff1602179055506080820151816004015560a082015181600501908051906020019061030b929190610c0d565b5060c08201518160060160006101000a81548160ff0219169083600381111561035d577f4e487b7100000000000000000000000000000000000000000000000000000000600052602160045260246000fd5b02179055505050505050505050565b600360009054906101000a900473ffffffffffffffffffffffffffffffffffffffff1681565b600481815481106103a257600080fd5b90600052602060002090600702016000915090508060000154908060010160009054906101000a900473ffffffffffffffffffffffffffffffffffffffff16908060020154908060030160009054906101000a900473ffffffffffffffffffffffffffffffffffffffff16908060040154908060050180546104239061147d565b80601f016020809104026020016040519081016040528092919081815260200182805461044f9061147d565b801561049c5780601f106104715761010080835404028352916020019161049c565b820191906000526020600020905b81548152906001019060200180831161047f57829003601f168201915b5050505050908060060160009054906101000a900460ff16905087565b600160009054906101000a900473ffffffffffffffffffffffffffffffffffffffff1681565b60606004805480602002602001604051908101604052809291908181526020016000905b8282101561071857838290600052602060002090600702016040518060e0016040529081600082015481526020016001820160009054906101000a900473ffffffffffffffffffffffffffffffffffffffff1673ffffffffffffffffffffffffffffffffffffffff1673ffffffffffffffffffffffffffffffffffffffff168152602001600282015481526020016003820160009054906101000a900473ffffffffffffffffffffffffffffffffffffffff1673ffffffffffffffffffffffffffffffffffffffff1673ffffffffffffffffffffffffffffffffffffffff168152602001600482015481526020016005820180546106009061147d565b80601f016020809104026020016040519081016040528092919081815260200182805461062c9061147d565b80156106795780601f1061064e57610100808354040283529160200191610679565b820191906000526020600020905b81548152906001019060200180831161065c57829003601f168201915b505050505081526020016006820160009054906101000a900460ff1660038111156106cd577f4e487b7100000000000000000000000000000000000000000000000000000000600052602160045260246000fd5b6003811115610705577f4e487b7100000000000000000000000000000000000000000000000000000000600052602160045260246000fd5b8152505081526020019060010190610503565b50505050905090565b600260009054906101000a900473ffffffffffffffffffffffffffffffffffffffff1673ffffffffffffffffffffffffffffffffffffffff163373ffffffffffffffffffffffffffffffffffffffff16146107b1576040517f08c379a00000000000000000000000000000000000000000000000000000000081526004016107a890611258565b60405180910390fd5b6000600488815481106107ed577f4e487b7100000000000000000000000000000000000000000000000000000000600052603260045260246000fd5b90600052602060002090600702016040518060e0016040529081600082015481526020016001820160009054906101000a900473ffffffffffffffffffffffffffffffffffffffff1673ffffffffffffffffffffffffffffffffffffffff1673ffffffffffffffffffffffffffffffffffffffff168152602001600282015481526020016003820160009054906101000a900473ffffffffffffffffffffffffffffffffffffffff1673ffffffffffffffffffffffffffffffffffffffff1673ffffffffffffffffffffffffffffffffffffffff168152602001600482015481526020016005820180546108e09061147d565b80601f016020809104026020016040519081016040528092919081815260200182805461090c9061147d565b80156109595780601f1061092e57610100808354040283529160200191610959565b820191906000526020600020905b81548152906001019060200180831161093c57829003601f168201915b505050505081526020016006820160009054906101000a900460ff1660038111156109ad577f4e487b7100000000000000000000000000000000000000000000000000000000600052602160045260246000fd5b60038111156109e5577f4e487b7100000000000000000000000000000000000000000000000000000000600052602160045260246000fd5b8152505090508273ffffffffffffffffffffffffffffffffffffffff16633ff956cc8888888886606001518760800151896040518863ffffffff1660e01b8152600401610a3897969594939291906111cc565b602060405180830381600087803b158015610a5257600080fd5b505af1158015610a66573d6000803e3d6000fd5b505050506040513d601f19601f82011682018060405250810190610a8a9190610e30565b50600160048981548110610ac7577f4e487b7100000000000000000000000000000000000000000000000000000000600052603260045260246000fd5b906000526020600020906007020160060160006101000a81548160ff02191690836003811115610b20577f4e487b7100000000000000000000000000000000000000000000000000000000600052602160045260246000fd5b0217905550600360009054906101000a900473ffffffffffffffffffffffffffffffffffffffff1673ffffffffffffffffffffffffffffffffffffffff1663e74a84ea826020015160646040518363ffffffff1660e01b8152600401610b879291906111a3565b600060405180830381600087803b158015610ba157600080fd5b505af1158015610bb5573d6000803e3d6000fd5b505050505050505050505050565b600260009054906101000a900473ffffffffffffffffffffffffffffffffffffffff1681565b6001816000016000828254019250508190555050565b600081600001549050919050565b828054610c199061147d565b90600052602060002090601f016020900481019282610c3b5760008555610c82565b82601f10610c5457805160ff1916838001178555610c82565b82800160010185558215610c82579182015b82811115610c81578251825591602001919060010190610c66565b5b509050610c8f9190610c93565b5090565b5b80821115610cac576000816000905550600101610c94565b5090565b6000610cc3610cbe84611313565b6112ee565b905082815260208101848484011115610cdb57600080fd5b610ce684828561143b565b509392505050565b600081359050610cfd816115bb565b92915050565b600081519050610d12816115d2565b92915050565b60008083601f840112610d2a57600080fd5b8235905067ffffffffffffffff811115610d4357600080fd5b602083019150836001820283011115610d5b57600080fd5b9250929050565b600082601f830112610d7357600080fd5b8135610d83848260208601610cb0565b91505092915050565b600081359050610d9b816115e9565b92915050565b600080600080600060a08688031215610db957600080fd5b6000610dc788828901610cee565b9550506020610dd888828901610d8c565b9450506040610de988828901610cee565b9350506060610dfa88828901610d8c565b925050608086013567ffffffffffffffff811115610e1757600080fd5b610e2388828901610d62565b9150509295509295909350565b600060208284031215610e4257600080fd5b6000610e5084828501610d03565b91505092915050565b600060208284031215610e6b57600080fd5b6000610e7984828501610d8c565b91505092915050565b600080600080600080600060c0888a031215610e9d57600080fd5b6000610eab8a828b01610d8c565b9750506020610ebc8a828b01610cee565b9650506040610ecd8a828b01610d8c565b955050606088013567ffffffffffffffff811115610eea57600080fd5b610ef68a828b01610d18565b94509450506080610f098a828b01610cee565b92505060a0610f1a8a828b01610d8c565b91505092959891949750929550565b6000610f3583836110ce565b905092915050565b610f46816113bc565b82525050565b610f55816113aa565b82525050565b610f64816113aa565b82525050565b6000610f7582611354565b610f7f8185611377565b935083602082028501610f9185611344565b8060005b85811015610fcd5784840389528151610fae8582610f29565b9450610fb98361136a565b925060208a01995050600181019050610f95565b50829750879550505050505092915050565b610fe881611417565b82525050565b610ff781611417565b82525050565b61100681611429565b82525050565b60006110188385611399565b935061102583858461143b565b61102e8361156d565b840190509392505050565b60006110448261135f565b61104e8185611388565b935061105e81856020860161144a565b6110678161156d565b840191505092915050565b600061107d8261135f565b6110878185611399565b935061109781856020860161144a565b6110a08161156d565b840191505092915050565b60006110b8600a83611399565b91506110c38261157e565b602082019050919050565b600060e0830160008301516110e6600086018261116a565b5060208301516110f96020860182610f4c565b50604083015161110c604086018261116a565b50606083015161111f6060860182610f4c565b506080830151611132608086018261116a565b5060a083015184820360a086015261114a8282611039565b91505060c083015161115f60c0860182610fdf565b508091505092915050565b6111738161140d565b82525050565b6111828161140d565b82525050565b600060208201905061119d6000830184610f3d565b92915050565b60006040820190506111b86000830185610f5b565b6111c56020830184610ffd565b9392505050565b600060c0820190506111e1600083018a610f5b565b6111ee6020830189611179565b818103604083015261120181878961100c565b90506112106060830186610f5b565b61121d6080830185611179565b61122a60a0830184611179565b98975050505050505050565b600060208201905081810360008301526112508184610f6a565b905092915050565b60006020820190508181036000830152611271816110ab565b9050919050565b600060e08201905061128d600083018a611179565b61129a6020830189610f5b565b6112a76040830188611179565b6112b46060830187610f5b565b6112c16080830186611179565b81810360a08301526112d38185611072565b90506112e260c0830184610fee565b98975050505050505050565b60006112f8611309565b905061130482826114af565b919050565b6000604051905090565b600067ffffffffffffffff82111561132e5761132d61153e565b5b6113378261156d565b9050602081019050919050565b6000819050602082019050919050565b600081519050919050565b600081519050919050565b6000602082019050919050565b600082825260208201905092915050565b600082825260208201905092915050565b600082825260208201905092915050565b60006113b5826113ed565b9050919050565b60006113c7826113ed565b9050919050565b60008115159050919050565b60008190506113e8826115a7565b919050565b600073ffffffffffffffffffffffffffffffffffffffff82169050919050565b6000819050919050565b6000611422826113da565b9050919050565b60006114348261140d565b9050919050565b82818337600083830152505050565b60005b8381101561146857808201518184015260208101905061144d565b83811115611477576000848401525b50505050565b6000600282049050600182168061149557607f821691505b602082108114156114a9576114a861150f565b5b50919050565b6114b88261156d565b810181811067ffffffffffffffff821117156114d7576114d661153e565b5b80604052505050565b7f4e487b7100000000000000000000000000000000000000000000000000000000600052602160045260246000fd5b7f4e487b7100000000000000000000000000000000000000000000000000000000600052602260045260246000fd5b7f4e487b7100000000000000000000000000000000000000000000000000000000600052604160045260246000fd5b6000601f19601f8301169050919050565b7f6f6e6c792061646d696e00000000000000000000000000000000000000000000600082015250565b600481106115b8576115b76114e0565b5b50565b6115c4816113aa565b81146115cf57600080fd5b50565b6115db816113ce565b81146115e657600080fd5b50565b6115f28161140d565b81146115fd57600080fd5b5056fea26469706673582212202e5c80357146b78e8775cb37479cfe960923e9226a4f3597b6bc52c3e8734d3e64736f6c63430008040033",
  "linkReferences": {},
  "deployedLinkReferences": {}
}